{
  "contractName": "ConstitutionCreator",
  "abi": [
    {
      "constant": true,
      "inputs": [
        {
          "name": "",
          "type": "uint256"
        }
      ],
      "name": "healthGuards",
      "outputs": [
        {
          "name": "",
          "type": "address"
        }
      ],
      "payable": false,
      "stateMutability": "view",
      "type": "function"
    },
    {
      "constant": false,
      "inputs": [
        {
          "name": "patientName",
          "type": "string"
        },
        {
          "name": "dob",
          "type": "uint256"
        },
        {
          "name": "medicalCondition",
          "type": "string"
        },
        {
          "name": "treatment",
          "type": "string"
        },
        {
          "name": "treatmentDate",
          "type": "uint256"
        },
        {
          "name": "doctorName",
          "type": "string"
        },
        {
          "name": "labResults",
          "type": "string"
        },
        {
          "name": "medicationDosage",
          "type": "string"
        }
      ],
      "name": "createConstitution",
      "outputs": [],
      "payable": false,
      "stateMutability": "nonpayable",
      "type": "function"
    },
    {
      "constant": true,
      "inputs": [],
      "name": "getDeployedConstitutions",
      "outputs": [
        {
          "name": "",
          "type": "address[]"
        }
      ],
      "payable": false,
      "stateMutability": "view",
      "type": "function"
    }
  ],
  "bytecode": "0x608060405234801561001057600080fd5b50611c37806100206000396000f3fe608060405234801561001057600080fd5b50600436106100415760003560e01c80635273c05a1461004657806382aa690a1461039657806399bd6833146103ee575b600080fd5b610394600480360361010081101561005d57600080fd5b810190602081018135600160201b81111561007757600080fd5b82018360208201111561008957600080fd5b803590602001918460018302840111600160201b831117156100aa57600080fd5b91908080601f01602080910402602001604051908101604052809392919081815260200183838082843760009201919091525092958435959094909350604081019250602001359050600160201b81111561010457600080fd5b82018360208201111561011657600080fd5b803590602001918460018302840111600160201b8311171561013757600080fd5b91908080601f0160208091040260200160405190810160405280939291908181526020018383808284376000920191909152509295949360208101935035915050600160201b81111561018957600080fd5b82018360208201111561019b57600080fd5b803590602001918460018302840111600160201b831117156101bc57600080fd5b91908080601f01602080910402602001604051908101604052809392919081815260200183838082843760009201919091525092958435959094909350604081019250602001359050600160201b81111561021657600080fd5b82018360208201111561022857600080fd5b803590602001918460018302840111600160201b8311171561024957600080fd5b91908080601f0160208091040260200160405190810160405280939291908181526020018383808284376000920191909152509295949360208101935035915050600160201b81111561029b57600080fd5b8201836020820111156102ad57600080fd5b803590602001918460018302840111600160201b831117156102ce57600080fd5b91908080601f0160208091040260200160405190810160405280939291908181526020018383808284376000920191909152509295949360208101935035915050600160201b81111561032057600080fd5b82018360208201111561033257600080fd5b803590602001918460018302840111600160201b8311171561035357600080fd5b91908080601f016020809104026020016040519081016040528093929190818152602001838380828437600092019190915250929550610427945050505050565b005b61039e610744565b60408051602080825283518183015283519192839290830191858101910280838360005b838110156103da5781810151838201526020016103c2565b505050509050019250505060405180910390f35b61040b6004803603602081101561040457600080fd5b50356107a6565b604080516001600160a01b039092168252519081900360200190f35b600033898989898989898960405161043e906107cd565b808a6001600160a01b03166001600160a01b0316815260200180602001898152602001806020018060200188815260200180602001806020018060200187810387528f818151815260200191508051906020019080838360005b838110156104b0578181015183820152602001610498565b50505050905090810190601f1680156104dd5780820380516001836020036101000a031916815260200191505b5087810386528d5181528d516020918201918f019080838360005b838110156105105781810151838201526020016104f8565b50505050905090810190601f16801561053d5780820380516001836020036101000a031916815260200191505b5087810385528c5181528c516020918201918e019080838360005b83811015610570578181015183820152602001610558565b50505050905090810190601f16801561059d5780820380516001836020036101000a031916815260200191505b5087810384528a5181528a516020918201918c019080838360005b838110156105d05781810151838201526020016105b8565b50505050905090810190601f1680156105fd5780820380516001836020036101000a031916815260200191505b5087810383528951815289516020918201918b019080838360005b83811015610630578181015183820152602001610618565b50505050905090810190601f16801561065d5780820380516001836020036101000a031916815260200191505b5087810382528851815288516020918201918a019080838360005b83811015610690578181015183820152602001610678565b50505050905090810190601f1680156106bd5780820380516001836020036101000a031916815260200191505b509f50505050505050505050505050505050604051809103906000f0801580156106eb573d6000803e3d6000fd5b50600080546001810182559080527f290decd9548b62a8d60345a988386fc84ba6bc95484008f6362f93160ef3e5630180546001600160a01b0319166001600160a01b0392909216919091179055505050505050505050565b6060600080548060200260200160405190810160405280929190818152602001828054801561079c57602002820191906000526020600020905b81546001600160a01b0316815260019091019060200180831161077e575b5050505050905090565b600081815481106107b357fe5b6000918252602090912001546001600160a01b0316905081565b611431806107db8339019056fe60806040523480156200001157600080fd5b50604051620014313803806200143183398101806040526101208110156200003857600080fd5b8151602083018051919392830192916401000000008111156200005a57600080fd5b820160208101848111156200006e57600080fd5b81516401000000008111828201871017156200008957600080fd5b50506020820151604090920180519194929391640100000000811115620000af57600080fd5b82016020810184811115620000c357600080fd5b8151640100000000811182820187101715620000de57600080fd5b50509291906020018051640100000000811115620000fb57600080fd5b820160208101848111156200010f57600080fd5b81516401000000008111828201871017156200012a57600080fd5b505060208201516040909201805191949293916401000000008111156200015057600080fd5b820160208101848111156200016457600080fd5b81516401000000008111828201871017156200017f57600080fd5b505092919060200180516401000000008111156200019c57600080fd5b82016020810184811115620001b057600080fd5b8151640100000000811182820187101715620001cb57600080fd5b50509291906020018051640100000000811115620001e857600080fd5b82016020810184811115620001fc57600080fd5b81516401000000008111828201871017156200021757600080fd5b5050600080546001600160a01b0319166001600160a01b038e161790558a519093506200024e92506001915060208b0190620002d6565b506002879055855162000269906003906020890190620002d6565b5084516200027f906004906020880190620002d6565b50600584905582516200029a906006906020860190620002d6565b508151620002b0906007906020850190620002d6565b508051620002c6906008906020840190620002d6565b505050505050505050506200037b565b828054600181600116156101000203166002900490600052602060002090601f016020900481019282601f106200031957805160ff191683800117855562000349565b8280016001018555821562000349579182015b82811115620003495782518255916020019190600101906200032c565b50620003579291506200035b565b5090565b6200037891905b8082111562000357576000815560010162000362565b90565b6110a6806200038b6000396000f3fe608060405234801561001057600080fd5b50600436106100ea5760003560e01c8063b665c0d31161008c578063c96b9e2911610066578063c96b9e29146107d9578063ca310670146107fd578063ce07c8b614610805578063dbad1ea81461080d576100ea565b8063b665c0d314610528578063ba49ca12146107c9578063c6e221f4146107d1576100ea565b806365241358116100c857806365241358146101c057806376702723146101c857806398f6f0e1146101d0578063a9edd459146101d8576100ea565b8063166b0053146100ef5780634623b0af14610109578063551a4c5a14610143575b600080fd5b6100f7610815565b60408051918252519081900360200190f35b61012f6004803603602081101561011f57600080fd5b50356001600160a01b031661081b565b604080519115158252519081900360200190f35b61014b610830565b6040805160208082528351818301528351919283929083019185019080838360005b8381101561018557818101518382015260200161016d565b50505050905090810190601f1680156101b25780820380516001836020036101000a031916815260200191505b509250505060405180910390f35b6100f76108be565b61014b6108c4565b61014b61091f565b61052660048036036101008110156101ef57600080fd5b810190602081018135600160201b81111561020957600080fd5b82018360208201111561021b57600080fd5b803590602001918460018302840111600160201b8311171561023c57600080fd5b91908080601f01602080910402602001604051908101604052809392919081815260200183838082843760009201919091525092958435959094909350604081019250602001359050600160201b81111561029657600080fd5b8201836020820111156102a857600080fd5b803590602001918460018302840111600160201b831117156102c957600080fd5b91908080601f0160208091040260200160405190810160405280939291908181526020018383808284376000920191909152509295949360208101935035915050600160201b81111561031b57600080fd5b82018360208201111561032d57600080fd5b803590602001918460018302840111600160201b8311171561034e57600080fd5b91908080601f01602080910402602001604051908101604052809392919081815260200183838082843760009201919091525092958435959094909350604081019250602001359050600160201b8111156103a857600080fd5b8201836020820111156103ba57600080fd5b803590602001918460018302840111600160201b831117156103db57600080fd5b91908080601f0160208091040260200160405190810160405280939291908181526020018383808284376000920191909152509295949360208101935035915050600160201b81111561042d57600080fd5b82018360208201111561043f57600080fd5b803590602001918460018302840111600160201b8311171561046057600080fd5b91908080601f0160208091040260200160405190810160405280939291908181526020018383808284376000920191909152509295949360208101935035915050600160201b8111156104b257600080fd5b8201836020820111156104c457600080fd5b803590602001918460018302840111600160201b831117156104e557600080fd5b91908080601f016020809104026020016040519081016040528093929190818152602001838380828437600092019190915250929550610979945050505050565b005b6105456004803603602081101561053e57600080fd5b5035610ad5565b6040518080602001898152602001806020018060200188815260200180602001806020018060200187810387528f818151815260200191508051906020019080838360005b838110156105a257818101518382015260200161058a565b50505050905090810190601f1680156105cf5780820380516001836020036101000a031916815260200191505b5087810386528d5181528d516020918201918f019080838360005b838110156106025781810151838201526020016105ea565b50505050905090810190601f16801561062f5780820380516001836020036101000a031916815260200191505b5087810385528c5181528c516020918201918e019080838360005b8381101561066257818101518382015260200161064a565b50505050905090810190601f16801561068f5780820380516001836020036101000a031916815260200191505b5087810384528a5181528a516020918201918c019080838360005b838110156106c25781810151838201526020016106aa565b50505050905090810190601f1680156106ef5780820380516001836020036101000a031916815260200191505b5087810383528951815289516020918201918b019080838360005b8381101561072257818101518382015260200161070a565b50505050905090810190601f16801561074f5780820380516001836020036101000a031916815260200191505b5087810382528851815288516020918201918a019080838360005b8381101561078257818101518382015260200161076a565b50505050905090810190601f1680156107af5780820380516001836020036101000a031916815260200191505b509e50505050505050505050505050505060405180910390f35b61014b610e70565b6100f7610ecb565b6107e1610ed1565b604080516001600160a01b039092168252519081900360200190f35b61014b610ee0565b61014b610f3b565b6100f7610f96565b60025481565b60096020526000908152604090205460ff1681565b6007805460408051602060026001851615610100026000190190941693909304601f810184900484028201840190925281815292918301828280156108b65780601f1061088b576101008083540402835291602001916108b6565b820191906000526020600020905b81548152906001019060200180831161089957829003601f168201915b505050505081565b600a5481565b6006805460408051602060026001851615610100026000190190941693909304601f810184900484028201840190925281815292918301828280156108b65780601f1061088b576101008083540402835291602001916108b6565b60018054604080516020600284861615610100026000190190941693909304601f810184900484028201840190925281815292918301828280156108b65780601f1061088b576101008083540402835291602001916108b6565b6000546001600160a01b0316331461099057600080fd5b610998610f9d565b50604080516101008101825289815260208082018a9052918101889052606081018790526080810186905260a0810185905260c0810184905260e08101839052600b8054600181018083556000929092528251805193949293859360089093027f0175b7a638427703f0dbe7bb9bbf987a2551717b34e79f33b5b1008d1fa01db90192610a29928492910190610fe2565b50602082810151600183015560408301518051610a4c9260028501920190610fe2565b5060608201518051610a68916003840191602090910190610fe2565b506080820151600482015560a08201518051610a8e916005840191602090910190610fe2565b5060c08201518051610aaa916006840191602090910190610fe2565b5060e08201518051610ac6916007840191602090910190610fe2565b50505050505050505050505050565b600b8181548110610ae257fe5b60009182526020918290206008919091020180546040805160026001841615610100026000190190931692909204601f810185900485028301850190915280825291935091839190830182828015610b7b5780601f10610b5057610100808354040283529160200191610b7b565b820191906000526020600020905b815481529060010190602001808311610b5e57829003601f168201915b505050505090806001015490806002018054600181600116156101000203166002900480601f016020809104026020016040519081016040528092919081815260200182805460018160011615610100020316600290048015610c1f5780601f10610bf457610100808354040283529160200191610c1f565b820191906000526020600020905b815481529060010190602001808311610c0257829003601f168201915b5050505060038301805460408051602060026001851615610100026000190190941693909304601f8101849004840282018401909252818152949594935090830182828015610caf5780601f10610c8457610100808354040283529160200191610caf565b820191906000526020600020905b815481529060010190602001808311610c9257829003601f168201915b50505050600483015460058401805460408051602060026001851615610100026000190190941693909304601f81018490048402820184019092528181529596939593945090830182828015610d465780601f10610d1b57610100808354040283529160200191610d46565b820191906000526020600020905b815481529060010190602001808311610d2957829003601f168201915b5050505060068301805460408051602060026001851615610100026000190190941693909304601f8101849004840282018401909252818152949594935090830182828015610dd65780601f10610dab57610100808354040283529160200191610dd6565b820191906000526020600020905b815481529060010190602001808311610db957829003601f168201915b5050505060078301805460408051602060026001851615610100026000190190941693909304601f8101849004840282018401909252818152949594935090830182828015610e665780601f10610e3b57610100808354040283529160200191610e66565b820191906000526020600020905b815481529060010190602001808311610e4957829003601f168201915b5050505050905088565b6008805460408051602060026001851615610100026000190190941693909304601f810184900484028201840190925281815292918301828280156108b65780601f1061088b576101008083540402835291602001916108b6565b60055481565b6000546001600160a01b031681565b6004805460408051602060026001851615610100026000190190941693909304601f810184900484028201840190925281815292918301828280156108b65780601f1061088b576101008083540402835291602001916108b6565b6003805460408051602060026001851615610100026000190190941693909304601f810184900484028201840190925281815292918301828280156108b65780601f1061088b576101008083540402835291602001916108b6565b600b545b90565b60405180610100016040528060608152602001600081526020016060815260200160608152602001600081526020016060815260200160608152602001606081525090565b828054600181600116156101000203166002900490600052602060002090601f016020900481019282601f1061102357805160ff1916838001178555611050565b82800160010185558215611050579182015b82811115611050578251825591602001919060010190611035565b5061105c929150611060565b5090565b610f9a91905b8082111561105c576000815560010161106656fea165627a7a72305820a3515b9ecb6f2100d9307409d17b4a77c97c709ee59502a3de10f748a1d822ec0029a165627a7a723058202dfc81b8198f239926025d48e0301886bed91b446923a7a1206895102d3f1f210029",
  "source": "pragma solidity ^0.5.0;\n\nimport \"./HealthGuard.sol\";\n\ncontract ConstitutionCreator {\n  address[] public healthGuards;\n\n  function createConstitution(\n        string memory patientName,\n        uint256 dob,\n        string memory medicalCondition,\n        string memory treatment,\n        uint256 treatmentDate,\n        string memory doctorName,\n        string memory labResults,\n        string memory medicationDosage\n    ) public {\n        address newHealthGuard = address (new HealthGuard(\n            msg.sender,\n            patientName,\n            dob,\n            medicalCondition,\n            treatment,\n            treatmentDate,\n            doctorName,\n            labResults,\n            medicationDosage\n    ));\n    healthGuards.push(newHealthGuard);\n  }  \n\nfunction getDeployedConstitutions() public view returns (address[] memory) {\n    return healthGuards;\n  }\n}\n\n\n// pragma solidity ^0.5.0;\n\n// import \"./HealthGuard.sol\";\n\n// contract Constitution {\n//     address public administrator;\n//     string public medicalFacilityName;\n//     string public medicalFacilityAddress;\n//     string public medicalFacilityContact;\n//     string public medicalProfessionalName;\n//     uint256 public medicalProfessionalLicense;\n\n//     struct ConstitutionStruct {\n//         string medicalFacilityName;\n//         string medicalFacilityAddress;\n//         string medicalFacilityContact;\n//         string medicalProfessionalName;\n//         uint256 medicalProfessionalLicense;\n//         address[] healthGuards;\n//     }\n\n//     ConstitutionStruct[] public constitutions;\n\n//     modifier administratorOnly() {\n//         require(msg.sender == administrator, \"Only the administrator can perform this action\");\n//         _;\n//     }\n\n//     constructor(\n//         address creator,\n//         string memory _medicalFacilityName,\n//         string memory _medicalFacilityAddress,\n//         string memory _medicalFacilityContact,\n//         string memory _medicalProfessionalName,\n//         uint256 _medicalProfessionalLicense\n//     ) public {\n//         administrator = creator;\n//         medicalFacilityName = _medicalFacilityName;\n//         medicalFacilityAddress = _medicalFacilityAddress;\n//         medicalFacilityContact = _medicalFacilityContact;\n//         medicalProfessionalName = _medicalProfessionalName;\n//         medicalProfessionalLicense = _medicalProfessionalLicense;\n//     }\n\n//     function createConstitution(\n//         string memory _medicalFacilityName,\n//         string memory _medicalFacilityAddress,\n//         string memory _medicalFacilityContact,\n//         string memory _medicalProfessionalName,\n//         uint256 _medicalProfessionalLicense\n//     ) public administratorOnly {\n//         ConstitutionStruct memory newConstitution = ConstitutionStruct({\n//             medicalFacilityName: _medicalFacilityName,\n//             medicalFacilityAddress: _medicalFacilityAddress,\n//             medicalFacilityContact: _medicalFacilityContact,\n//             medicalProfessionalName: _medicalProfessionalName,\n//             medicalProfessionalLicense: _medicalProfessionalLicense,\n//             healthGuards: new address[](0)\n//         });\n//         constitutions.push(newConstitution);\n//     }\n\n//     function addHealthGuard(\n//         uint256 constitutionIndex,\n//         address healthGuardAddress\n//     ) public administratorOnly {\n//         require(constitutionIndex < constitutions.length, \"Invalid constitution index\");\n//         constitutions[constitutionIndex].healthGuards.push(healthGuardAddress);\n//     }\n\n//     function getConstitutionCount() public view returns (uint) {\n//         return constitutions.length;\n//     }\n\n//     function getHealthGuardCount(uint256 constitutionIndex) public view returns (uint) {\n//         require(constitutionIndex < constitutions.length, \"Invalid constitution index\");\n//         return constitutions[constitutionIndex].healthGuards.length;\n//     }\n\n//     function getConstitutions() public view returns (address[] memory) {\n//         address[] memory addresses = new address[](constitutions.length);\n//         for (uint256 i = 0; i < constitutions.length; i++) {\n//             addresses[i] = address(this);\n//         }\n//         return addresses;\n//     }\n// }\n",
  "sourcePath": "/projects/bc5group/contracts/Constitution.sol",
  "compiler": {
    "name": "solc",
    "version": "0.5.8+commit.23d335f2.Emscripten.clang"
  },
  "schemaVersion": "3.4.1",
  "updatedAt": "2023-07-04T19:34:21.685Z",
  "devdoc": {
    "methods": {}
  },
  "userdoc": {
    "methods": {}
  }
}