{
  "contractName": "Constitution",
  "abi": [
    {
      "inputs": [
        {
          "internalType": "address",
          "name": "creator",
          "type": "address"
        },
        {
          "internalType": "string",
          "name": "_medicalFacilityName",
          "type": "string"
        },
        {
          "internalType": "string",
          "name": "_medicalFacilityAddress",
          "type": "string"
        },
        {
          "internalType": "string",
          "name": "_medicalFacilityContact",
          "type": "string"
        },
        {
          "internalType": "string",
          "name": "_medicalProfessionalName",
          "type": "string"
        },
        {
          "internalType": "uint256",
          "name": "_medicalProfessionalLicense",
          "type": "uint256"
        }
      ],
      "payable": false,
      "stateMutability": "nonpayable",
      "type": "constructor"
    },
    {
      "constant": true,
      "inputs": [],
      "name": "administrator",
      "outputs": [
        {
          "internalType": "address",
          "name": "",
          "type": "address"
        }
      ],
      "payable": false,
      "stateMutability": "view",
      "type": "function"
    },
    {
      "constant": true,
      "inputs": [
        {
          "internalType": "uint256",
          "name": "",
          "type": "uint256"
        }
      ],
      "name": "constitutions",
      "outputs": [
        {
          "internalType": "string",
          "name": "medicalFacilityName",
          "type": "string"
        },
        {
          "internalType": "string",
          "name": "medicalFacilityAddress",
          "type": "string"
        },
        {
          "internalType": "string",
          "name": "medicalFacilityContact",
          "type": "string"
        },
        {
          "internalType": "string",
          "name": "medicalProfessionalName",
          "type": "string"
        },
        {
          "internalType": "uint256",
          "name": "medicalProfessionalLicense",
          "type": "uint256"
        }
      ],
      "payable": false,
      "stateMutability": "view",
      "type": "function"
    },
    {
      "constant": true,
      "inputs": [],
      "name": "medicalFacilityAddress",
      "outputs": [
        {
          "internalType": "string",
          "name": "",
          "type": "string"
        }
      ],
      "payable": false,
      "stateMutability": "view",
      "type": "function"
    },
    {
      "constant": true,
      "inputs": [],
      "name": "medicalFacilityContact",
      "outputs": [
        {
          "internalType": "string",
          "name": "",
          "type": "string"
        }
      ],
      "payable": false,
      "stateMutability": "view",
      "type": "function"
    },
    {
      "constant": true,
      "inputs": [],
      "name": "medicalFacilityName",
      "outputs": [
        {
          "internalType": "string",
          "name": "",
          "type": "string"
        }
      ],
      "payable": false,
      "stateMutability": "view",
      "type": "function"
    },
    {
      "constant": true,
      "inputs": [],
      "name": "medicalProfessionalLicense",
      "outputs": [
        {
          "internalType": "uint256",
          "name": "",
          "type": "uint256"
        }
      ],
      "payable": false,
      "stateMutability": "view",
      "type": "function"
    },
    {
      "constant": true,
      "inputs": [],
      "name": "medicalProfessionalName",
      "outputs": [
        {
          "internalType": "string",
          "name": "",
          "type": "string"
        }
      ],
      "payable": false,
      "stateMutability": "view",
      "type": "function"
    },
    {
      "constant": false,
      "inputs": [
        {
          "internalType": "string",
          "name": "_medicalFacilityName",
          "type": "string"
        },
        {
          "internalType": "string",
          "name": "_medicalFacilityAddress",
          "type": "string"
        },
        {
          "internalType": "string",
          "name": "_medicalFacilityContact",
          "type": "string"
        },
        {
          "internalType": "string",
          "name": "_medicalProfessionalName",
          "type": "string"
        },
        {
          "internalType": "uint256",
          "name": "_medicalProfessionalLicense",
          "type": "uint256"
        }
      ],
      "name": "createConstitution",
      "outputs": [],
      "payable": false,
      "stateMutability": "nonpayable",
      "type": "function"
    },
    {
      "constant": false,
      "inputs": [
        {
          "internalType": "uint256",
          "name": "constitutionIndex",
          "type": "uint256"
        },
        {
          "internalType": "address",
          "name": "healthGuardAddress",
          "type": "address"
        }
      ],
      "name": "addHealthGuard",
      "outputs": [],
      "payable": false,
      "stateMutability": "nonpayable",
      "type": "function"
    },
    {
      "constant": true,
      "inputs": [],
      "name": "getConstitutionCount",
      "outputs": [
        {
          "internalType": "uint256",
          "name": "",
          "type": "uint256"
        }
      ],
      "payable": false,
      "stateMutability": "view",
      "type": "function"
    },
    {
      "constant": true,
      "inputs": [
        {
          "internalType": "uint256",
          "name": "constitutionIndex",
          "type": "uint256"
        }
      ],
      "name": "getHealthGuardCount",
      "outputs": [
        {
          "internalType": "uint256",
          "name": "",
          "type": "uint256"
        }
      ],
      "payable": false,
      "stateMutability": "view",
      "type": "function"
    },
    {
      "constant": true,
      "inputs": [],
      "name": "getConstitutions",
      "outputs": [
        {
          "internalType": "address[]",
          "name": "",
          "type": "address[]"
        }
      ],
      "payable": false,
      "stateMutability": "view",
      "type": "function"
    }
  ],
  "bytecode": "0x60806040523480156200001157600080fd5b50604051620013c8380380620013c8833981810160405260c08110156200003757600080fd5b8151602083018051604051929492938301929190846401000000008211156200005f57600080fd5b9083019060208201858111156200007557600080fd5b82516401000000008111828201881017156200009057600080fd5b82525081516020918201929091019080838360005b83811015620000bf578181015183820152602001620000a5565b50505050905090810190601f168015620000ed5780820380516001836020036101000a031916815260200191505b50604052602001805160405193929190846401000000008211156200011157600080fd5b9083019060208201858111156200012757600080fd5b82516401000000008111828201881017156200014257600080fd5b82525081516020918201929091019080838360005b838110156200017157818101518382015260200162000157565b50505050905090810190601f1680156200019f5780820380516001836020036101000a031916815260200191505b5060405260200180516040519392919084640100000000821115620001c357600080fd5b908301906020820185811115620001d957600080fd5b8251640100000000811182820188101715620001f457600080fd5b82525081516020918201929091019080838360005b838110156200022357818101518382015260200162000209565b50505050905090810190601f168015620002515780820380516001836020036101000a031916815260200191505b50604052602001805160405193929190846401000000008211156200027557600080fd5b9083019060208201858111156200028b57600080fd5b8251640100000000811182820188101715620002a657600080fd5b82525081516020918201929091019080838360005b83811015620002d5578181015183820152602001620002bb565b50505050905090810190601f168015620003035780820380516001836020036101000a031916815260200191505b50604052602090810151600080546001600160a01b0319166001600160a01b038b1617905587519093506200033f925060019188019062000391565b5083516200035590600290602087019062000391565b5082516200036b90600390602086019062000391565b5081516200038190600490602085019062000391565b5060055550620004369350505050565b828054600181600116156101000203166002900490600052602060002090601f016020900481019282601f10620003d457805160ff191683800117855562000404565b8280016001018555821562000404579182015b8281111562000404578251825591602001919060010190620003e7565b506200041292915062000416565b5090565b6200043391905b808211156200041257600081556001016200041d565b90565b610f8280620004466000396000f3fe608060405234801561001057600080fd5b50600436106100b45760003560e01c806390a9b6721161007157806390a9b672146105b557806397403703146105bd578063af6f1289146105e9578063d551d5f2146105f1578063e238be3c146105f9578063f53d0a8e14610616576100b4565b80632356b93e146100b95780632af19fca146102f05780632e6182921461030a57806332abb864146103875780636ae466e41461038f5780638a727504146103e7575b600080fd5b6102ee600480360360a08110156100cf57600080fd5b810190602081018135600160201b8111156100e957600080fd5b8201836020820111156100fb57600080fd5b803590602001918460018302840111600160201b8311171561011c57600080fd5b91908080601f0160208091040260200160405190810160405280939291908181526020018383808284376000920191909152509295949360208101935035915050600160201b81111561016e57600080fd5b82018360208201111561018057600080fd5b803590602001918460018302840111600160201b831117156101a157600080fd5b91908080601f0160208091040260200160405190810160405280939291908181526020018383808284376000920191909152509295949360208101935035915050600160201b8111156101f357600080fd5b82018360208201111561020557600080fd5b803590602001918460018302840111600160201b8311171561022657600080fd5b91908080601f0160208091040260200160405190810160405280939291908181526020018383808284376000920191909152509295949360208101935035915050600160201b81111561027857600080fd5b82018360208201111561028a57600080fd5b803590602001918460018302840111600160201b831117156102ab57600080fd5b91908080601f016020809104026020016040519081016040528093929190818152602001838380828437600092019190915250929550509135925061063a915050565b005b6102f86107b9565b60408051918252519081900360200190f35b6103126107bf565b6040805160208082528351818301528351919283929083019185019080838360005b8381101561034c578181015183820152602001610334565b50505050905090810190601f1680156103795780820380516001836020036101000a031916815260200191505b509250505060405180910390f35b61031261084a565b6103976108a5565b60408051602080825283518183015283519192839290830191858101910280838360005b838110156103d35781810151838201526020016103bb565b505050509050019250505060405180910390f35b610404600480360360208110156103fd57600080fd5b503561091b565b604051808060200180602001806020018060200186815260200185810385528a818151815260200191508051906020019080838360005b8381101561045357818101518382015260200161043b565b50505050905090810190601f1680156104805780820380516001836020036101000a031916815260200191505b5085810384528951815289516020918201918b019080838360005b838110156104b357818101518382015260200161049b565b50505050905090810190601f1680156104e05780820380516001836020036101000a031916815260200191505b5085810383528851815288516020918201918a019080838360005b838110156105135781810151838201526020016104fb565b50505050905090810190601f1680156105405780820380516001836020036101000a031916815260200191505b50858103825287518152875160209182019189019080838360005b8381101561057357818101518382015260200161055b565b50505050905090810190601f1680156105a05780820380516001836020036101000a031916815260200191505b50995050505050505050505060405180910390f35b610312610b91565b6102ee600480360360408110156105d357600080fd5b50803590602001356001600160a01b0316610bec565b610312610cdd565b6102f8610d37565b6102f86004803603602081101561060f57600080fd5b5035610d3d565b61061e610dbd565b604080516001600160a01b039092168252519081900360200190f35b6000546001600160a01b031633146106835760405162461bcd60e51b815260040180806020018281038252602e815260200180610f20602e913960400191505060405180910390fd5b61068b610dcc565b6040518060c0016040528087815260200186815260200185815260200184815260200183815260200160006040519080825280602002602001820160405280156106df578160200160208202803883390190505b509052600680546001810180835560008390528351805194955090938593929092027ff652222313e28459528d920b65115c16c04f3efc82aaedc97be59f3f377c0d3f019161073691839160209190910190610e02565b50602082810151805161074f9260018501920190610e02565b506040820151805161076b916002840191602090910190610e02565b5060608201518051610787916003840191602090910190610e02565b506080820151600482015560a082015180516107ad916005840191602090910190610e80565b50505050505050505050565b60055481565b6002805460408051602060018416156101000260001901909316849004601f810184900484028201840190925281815292918301828280156108425780601f1061081757610100808354040283529160200191610842565b820191906000526020600020905b81548152906001019060200180831161082557829003601f168201915b505050505081565b6004805460408051602060026001851615610100026000190190941693909304601f810184900484028201840190925281815292918301828280156108425780601f1061081757610100808354040283529160200191610842565b6060806006805490506040519080825280602002602001820160405280156108d7578160200160208202803883390190505b50905060005b60065481101561091457308282815181106108f457fe5b6001600160a01b03909216602092830291909101909101526001016108dd565b5090505b90565b6006818154811061092857fe5b60009182526020918290206006919091020180546040805160026001841615610100026000190190931692909204601f8101859004850283018501909152808252919350918391908301828280156109c15780601f10610996576101008083540402835291602001916109c1565b820191906000526020600020905b8154815290600101906020018083116109a457829003601f168201915b505050505090806001018054600181600116156101000203166002900480601f016020809104026020016040519081016040528092919081815260200182805460018160011615610100020316600290048015610a5f5780601f10610a3457610100808354040283529160200191610a5f565b820191906000526020600020905b815481529060010190602001808311610a4257829003601f168201915b50505060028085018054604080516020601f6000196101006001871615020190941695909504928301859004850281018501909152818152959695945090925090830182828015610af15780601f10610ac657610100808354040283529160200191610af1565b820191906000526020600020905b815481529060010190602001808311610ad457829003601f168201915b5050505060038301805460408051602060026001851615610100026000190190941693909304601f8101849004840282018401909252818152949594935090830182828015610b815780601f10610b5657610100808354040283529160200191610b81565b820191906000526020600020905b815481529060010190602001808311610b6457829003601f168201915b5050505050908060040154905085565b6003805460408051602060026001851615610100026000190190941693909304601f810184900484028201840190925281815292918301828280156108425780601f1061081757610100808354040283529160200191610842565b6000546001600160a01b03163314610c355760405162461bcd60e51b815260040180806020018281038252602e815260200180610f20602e913960400191505060405180910390fd5b6006548210610c8b576040805162461bcd60e51b815260206004820152601a60248201527f496e76616c696420636f6e737469747574696f6e20696e646578000000000000604482015290519081900360640190fd5b60068281548110610c9857fe5b60009182526020808320600692909202909101600501805460018101825590835291200180546001600160a01b0319166001600160a01b039290921691909117905550565b60018054604080516020600284861615610100026000190190941693909304601f810184900484028201840190925281815292918301828280156108425780601f1061081757610100808354040283529160200191610842565b60065490565b6006546000908210610d96576040805162461bcd60e51b815260206004820152601a60248201527f496e76616c696420636f6e737469747574696f6e20696e646578000000000000604482015290519081900360640190fd5b60068281548110610da357fe5b600091825260209091206005600690920201015492915050565b6000546001600160a01b031681565b6040518060c001604052806060815260200160608152602001606081526020016060815260200160008152602001606081525090565b828054600181600116156101000203166002900490600052602060002090601f016020900481019282601f10610e4357805160ff1916838001178555610e70565b82800160010185558215610e70579182015b82811115610e70578251825591602001919060010190610e55565b50610e7c929150610ee1565b5090565b828054828255906000526020600020908101928215610ed5579160200282015b82811115610ed557825182546001600160a01b0319166001600160a01b03909116178255602090920191600190910190610ea0565b50610e7c929150610efb565b61091891905b80821115610e7c5760008155600101610ee7565b61091891905b80821115610e7c5780546001600160a01b0319168155600101610f0156fe4f6e6c79207468652061646d696e6973747261746f722063616e20706572666f726d207468697320616374696f6ea265627a7a72315820fa2236ff1c4f46b26e8e1f5d11bf9d4cc767e7d050788a6ccab2e6c4d067c6ee64736f6c63430005100032",
  "source": "pragma solidity ^0.5.0;\n\nimport \"./HealthGuard.sol\";\n\ncontract Constitution {\n    address public administrator;\n    string public medicalFacilityName;\n    string public medicalFacilityAddress;\n    string public medicalFacilityContact;\n    string public medicalProfessionalName;\n    uint256 public medicalProfessionalLicense;\n\n    struct ConstitutionStruct {\n        string medicalFacilityName;\n        string medicalFacilityAddress;\n        string medicalFacilityContact;\n        string medicalProfessionalName;\n        uint256 medicalProfessionalLicense;\n        address[] healthGuards;\n    }\n\n    ConstitutionStruct[] public constitutions;\n\n    modifier administratorOnly() {\n        require(msg.sender == administrator, \"Only the administrator can perform this action\");\n        _;\n    }\n\n    constructor(\n        address creator,\n        string memory _medicalFacilityName,\n        string memory _medicalFacilityAddress,\n        string memory _medicalFacilityContact,\n        string memory _medicalProfessionalName,\n        uint256 _medicalProfessionalLicense\n    ) public {\n        administrator = creator;\n        medicalFacilityName = _medicalFacilityName;\n        medicalFacilityAddress = _medicalFacilityAddress;\n        medicalFacilityContact = _medicalFacilityContact;\n        medicalProfessionalName = _medicalProfessionalName;\n        medicalProfessionalLicense = _medicalProfessionalLicense;\n    }\n\n    function createConstitution(\n        string memory _medicalFacilityName,\n        string memory _medicalFacilityAddress,\n        string memory _medicalFacilityContact,\n        string memory _medicalProfessionalName,\n        uint256 _medicalProfessionalLicense\n    ) public administratorOnly {\n        ConstitutionStruct memory newConstitution = ConstitutionStruct({\n            medicalFacilityName: _medicalFacilityName,\n            medicalFacilityAddress: _medicalFacilityAddress,\n            medicalFacilityContact: _medicalFacilityContact,\n            medicalProfessionalName: _medicalProfessionalName,\n            medicalProfessionalLicense: _medicalProfessionalLicense,\n            healthGuards: new address[](0)\n        });\n        constitutions.push(newConstitution);\n    }\n\n    function addHealthGuard(\n        uint256 constitutionIndex,\n        address healthGuardAddress\n    ) public administratorOnly {\n        require(constitutionIndex < constitutions.length, \"Invalid constitution index\");\n        constitutions[constitutionIndex].healthGuards.push(healthGuardAddress);\n    }\n\n    function getConstitutionCount() public view returns (uint) {\n        return constitutions.length;\n    }\n\n    function getHealthGuardCount(uint256 constitutionIndex) public view returns (uint) {\n        require(constitutionIndex < constitutions.length, \"Invalid constitution index\");\n        return constitutions[constitutionIndex].healthGuards.length;\n    }\n\n    function getConstitutions() public view returns (address[] memory) {\n        address[] memory addresses = new address[](constitutions.length);\n        for (uint256 i = 0; i < constitutions.length; i++) {\n            addresses[i] = address(this);\n        }\n        return addresses;\n    }\n}\n",
  "sourcePath": "/projects/bc5group/contracts/Constitution.sol",
  "compiler": {
    "name": "solc",
    "version": "0.5.16+commit.9c3226ce.Emscripten.clang"
  },
  "schemaVersion": "3.4.1",
  "updatedAt": "2023-07-06T10:19:50.960Z",
  "devdoc": {
    "methods": {}
  },
  "userdoc": {
    "methods": {}
  }
}