{
  "contractName": "HealthGuard",
  "abi": [
    {
      "inputs": [
        {
          "internalType": "address",
          "name": "creator",
          "type": "address"
        },
        {
          "internalType": "string",
          "name": "_patientName",
          "type": "string"
        },
        {
          "internalType": "uint256",
          "name": "_dob",
          "type": "uint256"
        },
        {
          "internalType": "string",
          "name": "_medicalCondition",
          "type": "string"
        },
        {
          "internalType": "string",
          "name": "_treatment",
          "type": "string"
        },
        {
          "internalType": "uint256",
          "name": "_treatmentDate",
          "type": "uint256"
        },
        {
          "internalType": "string",
          "name": "_doctorName",
          "type": "string"
        },
        {
          "internalType": "string",
          "name": "_labResults",
          "type": "string"
        },
        {
          "internalType": "string",
          "name": "_medicationDosage",
          "type": "string"
        }
      ],
      "payable": false,
      "stateMutability": "nonpayable",
      "type": "constructor"
    },
    {
      "constant": true,
      "inputs": [],
      "name": "constitution",
      "outputs": [
        {
          "internalType": "address",
          "name": "",
          "type": "address"
        }
      ],
      "payable": false,
      "stateMutability": "view",
      "type": "function"
    },
    {
      "constant": true,
      "inputs": [],
      "name": "dob",
      "outputs": [
        {
          "internalType": "uint256",
          "name": "",
          "type": "uint256"
        }
      ],
      "payable": false,
      "stateMutability": "view",
      "type": "function"
    },
    {
      "constant": true,
      "inputs": [],
      "name": "doctorName",
      "outputs": [
        {
          "internalType": "string",
          "name": "",
          "type": "string"
        }
      ],
      "payable": false,
      "stateMutability": "view",
      "type": "function"
    },
    {
      "constant": true,
      "inputs": [
        {
          "internalType": "uint256",
          "name": "",
          "type": "uint256"
        }
      ],
      "name": "healthRecords",
      "outputs": [
        {
          "internalType": "string",
          "name": "patientName",
          "type": "string"
        },
        {
          "internalType": "uint256",
          "name": "dob",
          "type": "uint256"
        },
        {
          "internalType": "string",
          "name": "medicalCondition",
          "type": "string"
        },
        {
          "internalType": "string",
          "name": "treatment",
          "type": "string"
        },
        {
          "internalType": "uint256",
          "name": "treatmentDate",
          "type": "uint256"
        },
        {
          "internalType": "string",
          "name": "doctorName",
          "type": "string"
        },
        {
          "internalType": "string",
          "name": "labResults",
          "type": "string"
        },
        {
          "internalType": "string",
          "name": "medicationDosage",
          "type": "string"
        }
      ],
      "payable": false,
      "stateMutability": "view",
      "type": "function"
    },
    {
      "constant": true,
      "inputs": [],
      "name": "labResults",
      "outputs": [
        {
          "internalType": "string",
          "name": "",
          "type": "string"
        }
      ],
      "payable": false,
      "stateMutability": "view",
      "type": "function"
    },
    {
      "constant": true,
      "inputs": [],
      "name": "medicalCondition",
      "outputs": [
        {
          "internalType": "string",
          "name": "",
          "type": "string"
        }
      ],
      "payable": false,
      "stateMutability": "view",
      "type": "function"
    },
    {
      "constant": true,
      "inputs": [],
      "name": "medicationDosage",
      "outputs": [
        {
          "internalType": "string",
          "name": "",
          "type": "string"
        }
      ],
      "payable": false,
      "stateMutability": "view",
      "type": "function"
    },
    {
      "constant": true,
      "inputs": [
        {
          "internalType": "address",
          "name": "",
          "type": "address"
        }
      ],
      "name": "normalClients",
      "outputs": [
        {
          "internalType": "bool",
          "name": "",
          "type": "bool"
        }
      ],
      "payable": false,
      "stateMutability": "view",
      "type": "function"
    },
    {
      "constant": true,
      "inputs": [],
      "name": "numberNormalClients",
      "outputs": [
        {
          "internalType": "uint256",
          "name": "",
          "type": "uint256"
        }
      ],
      "payable": false,
      "stateMutability": "view",
      "type": "function"
    },
    {
      "constant": true,
      "inputs": [],
      "name": "patientName",
      "outputs": [
        {
          "internalType": "string",
          "name": "",
          "type": "string"
        }
      ],
      "payable": false,
      "stateMutability": "view",
      "type": "function"
    },
    {
      "constant": true,
      "inputs": [],
      "name": "treatment",
      "outputs": [
        {
          "internalType": "string",
          "name": "",
          "type": "string"
        }
      ],
      "payable": false,
      "stateMutability": "view",
      "type": "function"
    },
    {
      "constant": true,
      "inputs": [],
      "name": "treatmentDate",
      "outputs": [
        {
          "internalType": "uint256",
          "name": "",
          "type": "uint256"
        }
      ],
      "payable": false,
      "stateMutability": "view",
      "type": "function"
    },
    {
      "constant": false,
      "inputs": [
        {
          "internalType": "string",
          "name": "_patientName",
          "type": "string"
        },
        {
          "internalType": "uint256",
          "name": "_dob",
          "type": "uint256"
        },
        {
          "internalType": "string",
          "name": "_medicalCondition",
          "type": "string"
        },
        {
          "internalType": "string",
          "name": "_treatment",
          "type": "string"
        },
        {
          "internalType": "uint256",
          "name": "_treatmentDate",
          "type": "uint256"
        },
        {
          "internalType": "string",
          "name": "_doctorName",
          "type": "string"
        },
        {
          "internalType": "string",
          "name": "_labResults",
          "type": "string"
        },
        {
          "internalType": "string",
          "name": "_medicationDosage",
          "type": "string"
        }
      ],
      "name": "createHealthGuard",
      "outputs": [],
      "payable": false,
      "stateMutability": "nonpayable",
      "type": "function"
    },
    {
      "constant": true,
      "inputs": [],
      "name": "getHealthRecordCount",
      "outputs": [
        {
          "internalType": "uint256",
          "name": "",
          "type": "uint256"
        }
      ],
      "payable": false,
      "stateMutability": "view",
      "type": "function"
    }
  ],
  "bytecode": "0x60806040523480156200001157600080fd5b50604051620016953803806200169583398181016040526101208110156200003857600080fd5b8151602083018051604051929492938301929190846401000000008211156200006057600080fd5b9083019060208201858111156200007657600080fd5b82516401000000008111828201881017156200009157600080fd5b82525081516020918201929091019080838360005b83811015620000c0578181015183820152602001620000a6565b50505050905090810190601f168015620000ee5780820380516001836020036101000a031916815260200191505b506040818152602083015192018051929491939192846401000000008211156200011757600080fd5b9083019060208201858111156200012d57600080fd5b82516401000000008111828201881017156200014857600080fd5b82525081516020918201929091019080838360005b83811015620001775781810151838201526020016200015d565b50505050905090810190601f168015620001a55780820380516001836020036101000a031916815260200191505b5060405260200180516040519392919084640100000000821115620001c957600080fd5b908301906020820185811115620001df57600080fd5b8251640100000000811182820188101715620001fa57600080fd5b82525081516020918201929091019080838360005b83811015620002295781810151838201526020016200020f565b50505050905090810190601f168015620002575780820380516001836020036101000a031916815260200191505b506040818152602083015192018051929491939192846401000000008211156200028057600080fd5b9083019060208201858111156200029657600080fd5b8251640100000000811182820188101715620002b157600080fd5b82525081516020918201929091019080838360005b83811015620002e0578181015183820152602001620002c6565b50505050905090810190601f1680156200030e5780820380516001836020036101000a031916815260200191505b50604052602001805160405193929190846401000000008211156200033257600080fd5b9083019060208201858111156200034857600080fd5b82516401000000008111828201881017156200036357600080fd5b82525081516020918201929091019080838360005b838110156200039257818101518382015260200162000378565b50505050905090810190601f168015620003c05780820380516001836020036101000a031916815260200191505b5060405260200180516040519392919084640100000000821115620003e457600080fd5b908301906020820185811115620003fa57600080fd5b82516401000000008111828201881017156200041557600080fd5b82525081516020918201929091019080838360005b83811015620004445781810151838201526020016200042a565b50505050905090810190601f168015620004725780820380516001836020036101000a031916815260200191505b506040525050600080546001600160a01b0319166001600160a01b038c16179055508751620004a99060019060208b019062000531565b5060028790558551620004c490600390602089019062000531565b508451620004da90600490602088019062000531565b5060058490558251620004f590600690602086019062000531565b5081516200050b90600790602085019062000531565b5080516200052190600890602084019062000531565b50505050505050505050620005d6565b828054600181600116156101000203166002900490600052602060002090601f016020900481019282601f106200057457805160ff1916838001178555620005a4565b82800160010185558215620005a4579182015b82811115620005a457825182559160200191906001019062000587565b50620005b2929150620005b6565b5090565b620005d391905b80821115620005b25760008155600101620005bd565b90565b6110af80620005e66000396000f3fe608060405234801561001057600080fd5b50600436106100ea5760003560e01c8063b665c0d31161008c578063c96b9e2911610066578063c96b9e29146107d9578063ca310670146107fd578063ce07c8b614610805578063dbad1ea81461080d576100ea565b8063b665c0d314610528578063ba49ca12146107c9578063c6e221f4146107d1576100ea565b806365241358116100c857806365241358146101c057806376702723146101c857806398f6f0e1146101d0578063a9edd459146101d8576100ea565b8063166b0053146100ef5780634623b0af14610109578063551a4c5a14610143575b600080fd5b6100f7610815565b60408051918252519081900360200190f35b61012f6004803603602081101561011f57600080fd5b50356001600160a01b031661081b565b604080519115158252519081900360200190f35b61014b610830565b6040805160208082528351818301528351919283929083019185019080838360005b8381101561018557818101518382015260200161016d565b50505050905090810190601f1680156101b25780820380516001836020036101000a031916815260200191505b509250505060405180910390f35b6100f76108be565b61014b6108c4565b61014b61091f565b61052660048036036101008110156101ef57600080fd5b810190602081018135600160201b81111561020957600080fd5b82018360208201111561021b57600080fd5b803590602001918460018302840111600160201b8311171561023c57600080fd5b91908080601f01602080910402602001604051908101604052809392919081815260200183838082843760009201919091525092958435959094909350604081019250602001359050600160201b81111561029657600080fd5b8201836020820111156102a857600080fd5b803590602001918460018302840111600160201b831117156102c957600080fd5b91908080601f0160208091040260200160405190810160405280939291908181526020018383808284376000920191909152509295949360208101935035915050600160201b81111561031b57600080fd5b82018360208201111561032d57600080fd5b803590602001918460018302840111600160201b8311171561034e57600080fd5b91908080601f01602080910402602001604051908101604052809392919081815260200183838082843760009201919091525092958435959094909350604081019250602001359050600160201b8111156103a857600080fd5b8201836020820111156103ba57600080fd5b803590602001918460018302840111600160201b831117156103db57600080fd5b91908080601f0160208091040260200160405190810160405280939291908181526020018383808284376000920191909152509295949360208101935035915050600160201b81111561042d57600080fd5b82018360208201111561043f57600080fd5b803590602001918460018302840111600160201b8311171561046057600080fd5b91908080601f0160208091040260200160405190810160405280939291908181526020018383808284376000920191909152509295949360208101935035915050600160201b8111156104b257600080fd5b8201836020820111156104c457600080fd5b803590602001918460018302840111600160201b831117156104e557600080fd5b91908080601f016020809104026020016040519081016040528093929190818152602001838380828437600092019190915250929550610979945050505050565b005b6105456004803603602081101561053e57600080fd5b5035610ad5565b6040518080602001898152602001806020018060200188815260200180602001806020018060200187810387528f818151815260200191508051906020019080838360005b838110156105a257818101518382015260200161058a565b50505050905090810190601f1680156105cf5780820380516001836020036101000a031916815260200191505b5087810386528d5181528d516020918201918f019080838360005b838110156106025781810151838201526020016105ea565b50505050905090810190601f16801561062f5780820380516001836020036101000a031916815260200191505b5087810385528c5181528c516020918201918e019080838360005b8381101561066257818101518382015260200161064a565b50505050905090810190601f16801561068f5780820380516001836020036101000a031916815260200191505b5087810384528a5181528a516020918201918c019080838360005b838110156106c25781810151838201526020016106aa565b50505050905090810190601f1680156106ef5780820380516001836020036101000a031916815260200191505b5087810383528951815289516020918201918b019080838360005b8381101561072257818101518382015260200161070a565b50505050905090810190601f16801561074f5780820380516001836020036101000a031916815260200191505b5087810382528851815288516020918201918a019080838360005b8381101561078257818101518382015260200161076a565b50505050905090810190601f1680156107af5780820380516001836020036101000a031916815260200191505b509e50505050505050505050505050505060405180910390f35b61014b610e70565b6100f7610ecb565b6107e1610ed1565b604080516001600160a01b039092168252519081900360200190f35b61014b610ee0565b61014b610f3b565b6100f7610f96565b60025481565b60096020526000908152604090205460ff1681565b6007805460408051602060026001851615610100026000190190941693909304601f810184900484028201840190925281815292918301828280156108b65780601f1061088b576101008083540402835291602001916108b6565b820191906000526020600020905b81548152906001019060200180831161089957829003601f168201915b505050505081565b600a5481565b6006805460408051602060026001851615610100026000190190941693909304601f810184900484028201840190925281815292918301828280156108b65780601f1061088b576101008083540402835291602001916108b6565b60018054604080516020600284861615610100026000190190941693909304601f810184900484028201840190925281815292918301828280156108b65780601f1061088b576101008083540402835291602001916108b6565b6000546001600160a01b0316331461099057600080fd5b610998610f9d565b50604080516101008101825289815260208082018a9052918101889052606081018790526080810186905260a0810185905260c0810184905260e08101839052600b8054600181018083556000929092528251805193949293859360089093027f0175b7a638427703f0dbe7bb9bbf987a2551717b34e79f33b5b1008d1fa01db90192610a29928492910190610fe2565b50602082810151600183015560408301518051610a4c9260028501920190610fe2565b5060608201518051610a68916003840191602090910190610fe2565b506080820151600482015560a08201518051610a8e916005840191602090910190610fe2565b5060c08201518051610aaa916006840191602090910190610fe2565b5060e08201518051610ac6916007840191602090910190610fe2565b50505050505050505050505050565b600b8181548110610ae257fe5b60009182526020918290206008919091020180546040805160026001841615610100026000190190931692909204601f810185900485028301850190915280825291935091839190830182828015610b7b5780601f10610b5057610100808354040283529160200191610b7b565b820191906000526020600020905b815481529060010190602001808311610b5e57829003601f168201915b505050505090806001015490806002018054600181600116156101000203166002900480601f016020809104026020016040519081016040528092919081815260200182805460018160011615610100020316600290048015610c1f5780601f10610bf457610100808354040283529160200191610c1f565b820191906000526020600020905b815481529060010190602001808311610c0257829003601f168201915b5050505060038301805460408051602060026001851615610100026000190190941693909304601f8101849004840282018401909252818152949594935090830182828015610caf5780601f10610c8457610100808354040283529160200191610caf565b820191906000526020600020905b815481529060010190602001808311610c9257829003601f168201915b50505050600483015460058401805460408051602060026001851615610100026000190190941693909304601f81018490048402820184019092528181529596939593945090830182828015610d465780601f10610d1b57610100808354040283529160200191610d46565b820191906000526020600020905b815481529060010190602001808311610d2957829003601f168201915b5050505060068301805460408051602060026001851615610100026000190190941693909304601f8101849004840282018401909252818152949594935090830182828015610dd65780601f10610dab57610100808354040283529160200191610dd6565b820191906000526020600020905b815481529060010190602001808311610db957829003601f168201915b5050505060078301805460408051602060026001851615610100026000190190941693909304601f8101849004840282018401909252818152949594935090830182828015610e665780601f10610e3b57610100808354040283529160200191610e66565b820191906000526020600020905b815481529060010190602001808311610e4957829003601f168201915b5050505050905088565b6008805460408051602060026001851615610100026000190190941693909304601f810184900484028201840190925281815292918301828280156108b65780601f1061088b576101008083540402835291602001916108b6565b60055481565b6000546001600160a01b031681565b6004805460408051602060026001851615610100026000190190941693909304601f810184900484028201840190925281815292918301828280156108b65780601f1061088b576101008083540402835291602001916108b6565b6003805460408051602060026001851615610100026000190190941693909304601f810184900484028201840190925281815292918301828280156108b65780601f1061088b576101008083540402835291602001916108b6565b600b545b90565b60405180610100016040528060608152602001600081526020016060815260200160608152602001600081526020016060815260200160608152602001606081525090565b828054600181600116156101000203166002900490600052602060002090601f016020900481019282601f1061102357805160ff1916838001178555611050565b82800160010185558215611050579182015b82811115611050578251825591602001919060010190611035565b5061105c929150611060565b5090565b610f9a91905b8082111561105c576000815560010161106656fea265627a7a72315820637696c0e5e9f410553bab589409cb3ad5350cfc81fa28980410a1dabac4f75264736f6c63430005100032",
  "source": "pragma solidity ^0.5.0;\n\ncontract HealthGuard {\n    address public constitution;\n    string public patientName;\n    uint256 public dob;\n    string public medicalCondition;\n    string public treatment;\n    uint256 public treatmentDate;\n    string public doctorName;\n    string public labResults;\n    string public medicationDosage;\n\n    struct HealthRecord {\n        string patientName;\n        uint256 dob;\n        string medicalCondition;\n        string treatment;\n        uint256 treatmentDate;\n        string doctorName;\n        string labResults;\n        string medicationDosage;\n    }\n\n    mapping(address=>bool) public normalClients;\n\n    uint public numberNormalClients;\n\n    HealthRecord[] public healthRecords;\n\n\n    modifier constitutionOwnerOnly() {\n        require(msg.sender == constitution);\n        _;\n    }\n\n    modifier normalClientOnly() {\n        require(normalClients[msg.sender]);\n        _;\n    }\n\n    constructor(\n        address creator,\n        string memory _patientName,\n        uint256 _dob,\n        string memory _medicalCondition,\n        string memory _treatment,\n        uint256 _treatmentDate,\n        string memory _doctorName,\n        string memory _labResults,\n        string memory _medicationDosage\n    ) public {\n        constitution = creator;\n        patientName = _patientName;\n        dob = _dob;\n        medicalCondition = _medicalCondition;\n        treatment = _treatment;\n        treatmentDate = _treatmentDate;\n        doctorName = _doctorName;\n        labResults = _labResults;\n        medicationDosage = _medicationDosage;\n    }\n\n    function createHealthGuard(\n        string memory _patientName,\n        uint256 _dob,\n        string memory _medicalCondition,\n        string memory _treatment,\n        uint256 _treatmentDate,\n        string memory _doctorName,\n        string memory _labResults,\n        string memory _medicationDosage\n    ) public constitutionOwnerOnly {\n        HealthRecord memory newHealthRecord = HealthRecord({\n            patientName: _patientName,\n            dob: _dob,\n            medicalCondition: _medicalCondition,\n            treatment: _treatment,\n            treatmentDate: _treatmentDate,\n            doctorName: _doctorName,\n            labResults: _labResults,\n            medicationDosage: _medicationDosage\n        });\n        healthRecords.push(newHealthRecord);\n    }\n\n    function getHealthRecordCount() public view returns (uint)\n    {\n        return healthRecords.length;\n    }\n}",
  "sourcePath": "/projects/bc5group/contracts/HealthGuard.sol",
  "compiler": {
    "name": "solc",
    "version": "0.5.16+commit.9c3226ce.Emscripten.clang"
  },
  "schemaVersion": "3.4.1",
  "updatedAt": "2023-07-06T10:19:50.971Z",
  "devdoc": {
    "methods": {}
  },
  "userdoc": {
    "methods": {}
  }
}